:020000040800F2
:106000003C6D0008ED610008CD620008030000004F
:1060100080EA010212F0030F3AD110F0030220F0DF
:10602000030021F0030150F804CB08BF51F8043BF2
:106030000DD082F003024FEAC2026FF07F4323FAD1
:1060400002F251F8043B4CEA020C43EA020300BF9F
:10605000ACF101329C4501BF22EA0C0212F0803FF4
:1060600050F804CB51F8043BF2D04FEA0C604FEAF1
:106070001C2C012828BFB0EB036F08BF1B0AF4D00B
:1060800003F0FF034FEA1060A0EB0300704700BF6E
:1060900010F0030F0AD010F8012B11F8013B012A70
:1060A00028BF9A42F4D0A2EB030070474DF8045D7C
:1060B0004DF8044D4FF0010242EA022242EA024248
:1060C00001F0030C21F0030150F8044B51F8045B7C
:1060D000BCF1020F26D04BD824F07F4CBCEB152F1F
:1060E000A4EB020323EA04030DD113EAC21308BF91
:1060F00051F8045B0AD18CEA040CBCEB056F0CD19F
:1061000050F8044BE8E74FEA15255CE033F07F4395
:1061100052D10D784FEA146C55E04FEA146C05F03B
:10612000FF0550E04FEA044CA4EB02034FEA1C4C7D
:1061300023EA0403BCEB154F17D113EAC21308BFBF
:1061400051F8045B07D18CEA040CBCEB054F08D175
:1061500050F8044BE6E71B042ED10D884FEA144C8F
:1061600031E04FEA05454FEA144C4FEA15452AE065
:1061700004F0FF0CBCEB156FA4EB020323EA04034D
:106180000DD113EAC21308BF51F8045B0AD18CEA9F
:10619000040CBCEB052F0AD150F8044BE8E74FEA9A
:1061A000156510E014F0FF0F06D051F8045B4FEABC
:1061B000142C25F07F4506E04FF000005DF8044BFD
:1061C0005DF8045B70470CF0FF0205F0FF0001284A
:1061D00028BF904204BF4FEA1C2C2D0AF3D0A2EB3B
:1061E00000005DF8044B5DF8045B704710B50021BA
:1061F00003E00C4BCB580B5004310B480B4B0A18E7
:106200009A42F6D30A4A02E0002342F8043B094BC3
:106210009A42F9D34FF480731A68074B1A6000F062
:106220000DF810BDDC6D00080000002014000020F7
:10623000140000204C1000204810002080B500AF52
:1062400041F24803C2F200031B68D3F8D0329847EA
:106250000346184646F65851C0F60001FFF7D8FE2F
:106260000346002B03DA00F033F903462BE041F23A
:106270004803C2F200031B68D3F850314FF000000E
:10628000984741F24803C2F200031B68D3F830314B
:106290004FF00000984700F0FFFB41F24803C2F2C4
:1062A00000031B68D3F8C0324FF00500984741F255
:1062B0004803C2F200031B68D3F8B8324FF00A005B
:1062C00098474FF00403184680BD00BF90B587B0D3
:1062D00002AF40F20003C2F200031B78002B5DD036
:1062E00000F0DAFB0346FB72FB7A032B00F0CA8056
:1062F0004FF07B0000F058FC4FF00003FB604FF0C4
:106300000003FB601DE000F0A9FC024646F648537E
:10631000C0F600031B68B2FBF3F103FB01F3D21AD2
:1063200046F64C53C0F6000353F8221040F22C03FB
:10633000C2F20003FA6843F82210FB6803F101037C
:10634000FB6046F6A053C0F600031B68FA689A4249
:10635000D9DBFB7A002B19D041F24803C2F20003CB
:106360001B68D3F8DC301C4646F66053C0F60003C9
:106370004FF0010200924FF0010201924FF0000035
:106380004FF000011A464FF0FF33A04740F20003E0
:10639000C2F200034FF000021A7073E040F23803BB
:1063A000C2F200031A6840F22C03C2F2000353F851
:1063B00022303A46104698473B78012B18D17A682C
:1063C00040F23C03C2F200031B68D21840F23C03C7
:1063D000C2F200031A6040F23803C2F200031B68E5
:1063E00003F1010240F23803C2F200031A601AE01E
:1063F0003B78022B17D140F20403C2F200031B6862
:1064000003F1FF3240F20403C2F200031A6040F2CB
:106410003803C2F200031B6803F1010240F23803A3
:10642000C2F200031A6040F20403C2F200031B68C8
:10643000002B0BD040F23803C2F200031A6846F674
:10644000A053C0F600031B689A421BD140F2000320
:10645000C2F200034FF001021A7040F20403C2F2CC
:1064600000034FF003021A6040F23C03C2F2000343
:106470004FF000021A6040F23803C2F200034FF0FE
:1064800000021A6041F24803C2F200031B68D3F80D
:10649000003298470346DBB25BB2012B11D141F2C7
:1064A0004803C2F200031B68D3F80C32984741F24C
:1064B0004803C2F200031B68D3F8A832984703468A
:1064C00001E04FF00103184607F11407BD4690BDE7
:1064D00090B583B000AF41F24803C2F200031B68DD
:1064E000D3F89C301C4646F67053C0F600034FF0BC
:1064F00005004FF03C011A464FF01103A04741F24E
:106500004803C2F200031B68D3F89C301C4641F2DA
:106510004803C2F200031B68D3F8D0329847034601
:106520004FF050004FF03C011A464FF00603A047D1
:1065300041F24803C2F200031B68D3F89C301C46AA
:1065400046F65853C0F600034FF005004FF0220105
:106550001A464FF00603A04741F24803C2F2000377
:106560001B68D3F89C301C4646F67C53C0F60003EB
:106570004FF032004FF022011A464FF00C03A047B3
:1065800041F24803C2F200031B68D3F8043307F159
:10659000070007F1060107F1050298477B7903F12F
:1065A0000403DBB27B717A7948F68903C8F6880365
:1065B000A3FB02134FEA53110B464FEA03135B1A76
:1065C0004FEA8303D31ADBB27B7141F24803C2F274
:1065D00000031B68D3F8043307F1070007F1060135
:1065E00007F1040298473A797B799A42EDD141F25A
:1065F0004803C2F200031B68D3F8843098474FF079
:106600000203184607F10C07BD4690BDB0B582B035
:1066100002AF044640F22403C2F200034FF000022E
:106620001A7040F22403C2F200034FF000025A60D5
:1066300041F24803C2F200031B68D3F88430984744
:1066400041F24803C2F200031B68D3F8DC301D4658
:1066500046F68853C0F600034FF0010200924FF057
:10666000010201924FF000004FF00A011A464FF06C
:10667000FF33A84741F24803C2F200031B68D3F876
:106680008C3198470346DBB2002B06D040F224033E
:10669000C2F200034FF001021A7040F22403C2F26A
:1066A0000003224693E8030082E803002046BD462B
:1066B000B0BD00BFB0B582B002AF044640F21C03CB
:1066C000C2F200034FF000021A7040F21C03C2F243
:1066D00000034FF000025A6041F24803C2F2000387
:1066E0001B68D3F88430984741F24803C2F2000394
:1066F0001B68D3F8DC301D4646F69053C0F6000305
:106700004FF0010200924FF0010201924FF00000A1
:106710004FF00A011A464FF0FF33A84741F24803F1
:10672000C2F200031B68D3F88C3198470346DBB2F2
:10673000002B06D040F21C03C2F200034FF001020E
:106740001A7040F21C03C2F20003224693E80300D1
:1067500082E803002046BD46B0BD00BFB0B582B0A0
:1067600002AF044640F21403C2F200034FF00002ED
:106770001A7040F21403C2F200034FF000025A6094
:1067800041F24803C2F200031B68D3F884309847F3
:1067900041F24803C2F200031B68D3F8DC301D4607
:1067A00046F69853C0F600034FF0010200924FF0F6
:1067B000010201924FF000004FF00A011A464FF01B
:1067C000FF33A84741F24803C2F200031B68D3F825
:1067D0008C3198470346DBB2002B06D040F21403FD
:1067E000C2F200034FF001021A7040F21403C2F229
:1067F0000003224693E8030082E803002046BD46DA
:10680000B0BD00BF80B500AF41F24803C2F2000343
:106810001B68D3F8A8304FF00100984741F24803B5
:10682000C2F200031B68D3F8B0304FF6FF709847F0
:1068300041F24803C2F200031B68D3F8B8304FF4AA
:10684000F850984780BD00BF80B500AFFFF7DAFF72
:1068500000F004F800F024F880BD00BF90B583B0CC
:1068600002AF41F24803C2F200031B68D3F8DC30E8
:106870001C4646F6A453C0F600034FF000020092F7
:106880004FF0010201924FF000004FF064011A46F0
:106890004FF0FF33A04707F10407BD4690BD00BF8E
:1068A00090B583B002AF00F061F841F24803C2F244
:1068B00000031B68D3F8DC301C4646F6B053C0F624
:1068C00000034FF0010200924FF0010201924FF0DD
:1068D00000004FF040011A464FF0FF33A04741F24D
:1068E0004803C2F200031B68D3F81C311C464FF466
:1068F000F85300934FF010004FF03C014FF05D0251
:106900004FF01403A04741F24803C2F200031B6892
:10691000D3F8DC301C4646F6C053C0F600034FF0F7
:10692000010200924FF0010201924FF000004FF07F
:1069300022011A464FF0FF33A04741F24803C2F24A
:1069400000031B68D3F81C311C464FF4F853009326
:106950004FF010004FF01E014FF05D024FF0140396
:10696000A04707F10407BD4690BD00BF90B583B0B6
:1069700002AF41F24803C2F200031B68D3F818319A
:106980001C464FF6FF7300934FF010004FF03C0190
:106990004FF05D024FF01403A04741F24803C2F2EA
:1069A00000031B68D3F818311C464FF6FF730093A1
:1069B0004FF010004FF01E014FF05D024FF0140336
:1069C000A04707F10407BD4690BD00BF90B583B056
:1069D00002AFFFF7CBFF41F24803C2F200031B688E
:1069E000D3F8DC301C4646F6CC53C0F600034FF01B
:1069F000010200924FF0010201924FF000004FF0AF
:106A000040011A464FF0FF33A04741F24803C2F25B
:106A100000031B68D3F81C311C464FF4F853009355
:106A20004FF010004FF03C014FF05D024FF01403A7
:106A3000A04741F24803C2F200031B68D3F8DC30E0
:106A40001C4646F6D453C0F600034FF001020092F4
:106A50004FF0010201924FF000004FF022011A4660
:106A60004FF0FF33A04741F24803C2F200031B6816
:106A7000D3F81C311C464FF4F85300934FF010002C
:106A80004FF01E014FF05D024FF01403A04707F1D5
:106A90000407BD4690BD00BF80B582B000AF40F294
:106AA0004403C2F200031B78002B08D1FFF7CCFE91
:106AB00040F24403C2F200034FF001021A7041F2A7
:106AC0004803C2F200031B68D3F88C319847034691
:106AD000DBB2002B49D041F24803C2F200031B682D
:106AE000D3F8843198470346FB80FB887B71FB8891
:106AF0004FEA13239BB23B717B790F2B15D97B791E
:106B00006D2B12D83B793B2B0FD93B79502B0CD8EE
:106B100040F20803C2F200031B78002B02D04FF0B2
:106B2000000324E04FF0010321E07B790F2B1CD9F7
:106B30007B796D2B19D83B791D2B16D93B79322BDC
:106B400013D840F20803C2F200031B78002B09D0CF
:106B500040F20803C2F200034FF000021A7000F086
:106B600011F802E04FF0020301E04FF00303184672
:106B700007F10807BD4680BD80B400AFBD4680BCAC
:106B8000704700BF80B500AFFFF720FF80BD00BF9A
:106B900080B400AFBD4680BC704700BF80B400AF7A
:106BA000BD4680BC704700BF80B485B000AF786040
:106BB00040F24803C2F200037A681A607A6847F626
:106BC000B913C9F63763D3181A4640F24803C2F224
:106BD00000035A607A684FF27233C3F66E43D318DB
:106BE0001A4640F24803C2F200039A604FF00303D2
:106BF000FB6028E0FB68A3F1030240F24803C2F205
:106C0000000353F82220FB68A3F1020140F248037D
:106C1000C2F2000353F8213082EA03031A46FB68EC
:106C20005A4047F6B913C9F6376382EA0303194697
:106C300040F24803C2F20003FA6843F82210FB68EE
:106C400003F10103FB60FA6840F2FF339A42D1DDA1
:106C500007F11407BD4680BC704700BF80B485B003
:106C600000AF44F65E13BB606FF001037B6040F23F
:106C70001003C2F200031B6803F101034FEA035241
:106C80004FEA125240F21003C2F200031A6040F2BF
:106C90001003C2F200031A6840F24803C2F2000374
:106CA00053F82230BA6802FB03F240F20C03C2F23E
:106CB00000031B68D3183B603B684FEA234240F255
:106CC0000C03C2F200031A6040F20C03C2F200038C
:106CD0001B683A68D318FB6040F20C03C2F2000351
:106CE0001B68FA689A420FDAFB6803F10103FB6044
:106CF00040F20C03C2F200031B6803F1010240F2F0
:106D00000C03C2F200031A6040F21003C2F2000347
:106D10001A687968FB68C91A40F24803C2F2000396
:106D200043F8221040F24803C2F2000353F8223025
:106D3000184607F11407BD4680BC70475072692E93
:106D40005761722E00000000030000000D6600086D
:106D5000B56600085D6700085620342E300000003C
:106D60004D756C7469706C61796168210000000078
:106D7000436972636C654F530000000020726571B7
:106D800075697265640000005465737420310000F9
:106D9000546573742032000054657374203300000E
:106DA000030000005072696D6572576172652100C1
:106DB00053696E676C6520506C61796572000000E4
:106DC00054776F20506C617965727300436F2D6F3B
:0C6DD000700000005665727375730000BF
:106DDC00010000000300000001000000FFFF0000A4
:046DEC00FF0F000095
:04000005080060107F
:00000001FF
