:020000040800F2
:1060000008730008ED610008B56200080300000095
:1060100080EA010212F0030F3AD110F0030220F0DF
:10602000030021F0030150F804CB08BF51F8043BF2
:106030000DD082F003024FEAC2026FF07F4323FAD1
:1060400002F251F8043B4CEA020C43EA020300BF9F
:10605000ACF101329C4501BF22EA0C0212F0803FF4
:1060600050F804CB51F8043BF2D04FEA0C604FEAF1
:106070001C2C012828BFB0EB036F08BF1B0AF4D00B
:1060800003F0FF034FEA1060A0EB0300704700BF6E
:1060900010F0030F0AD010F8012B11F8013B012A70
:1060A00028BF9A42F4D0A2EB030070474DF8045D7C
:1060B0004DF8044D4FF0010242EA022242EA024248
:1060C00001F0030C21F0030150F8044B51F8045B7C
:1060D000BCF1020F26D04BD824F07F4CBCEB152F1F
:1060E000A4EB020323EA04030DD113EAC21308BF91
:1060F00051F8045B0AD18CEA040CBCEB056F0CD19F
:1061000050F8044BE8E74FEA15255CE033F07F4395
:1061100052D10D784FEA146C55E04FEA146C05F03B
:10612000FF0550E04FEA044CA4EB02034FEA1C4C7D
:1061300023EA0403BCEB154F17D113EAC21308BFBF
:1061400051F8045B07D18CEA040CBCEB054F08D175
:1061500050F8044BE6E71B042ED10D884FEA144C8F
:1061600031E04FEA05454FEA144C4FEA15452AE065
:1061700004F0FF0CBCEB156FA4EB020323EA04034D
:106180000DD113EAC21308BF51F8045B0AD18CEA9F
:10619000040CBCEB052F0AD150F8044BE8E74FEA9A
:1061A000156510E014F0FF0F06D051F8045B4FEABC
:1061B000142C25F07F4506E04FF000005DF8044BFD
:1061C0005DF8045B70470CF0FF0205F0FF0001284A
:1061D00028BF904204BF4FEA1C2C2D0AF3D0A2EB3B
:1061E00000005DF8044B5DF8045B704710B50021BA
:1061F00003E00C4BCB580B5004310B480B4B0A18E7
:106200009A42F6D30A4A02E0002342F8043B094BC3
:106210009A42F9D34FF480731A68074B1A6000F062
:106220000DF810BD107400080000002014000020BC
:1062300014000020340100203001002080B500AFA0
:1062400040F23013C2F200031B68D3F8D0329847F3
:106250000346184647F23831C0F60001FFF7D8FE72
:106260000346002B03DA00F071F903461FE040F209
:106270003013C2F200031B68D3F830314FF0000036
:10628000984740F23013C2F200031B68D3F8C032C3
:106290004FF00500984740F23013C2F200031B682C
:1062A000D3F8B8324FF00A0098474FF0040318466D
:1062B00080BD00BF90B589B002AF00F0D5FF40F2BD
:1062C0000003C2F200031B78002B71D000F0D0FC59
:1062D0000346FB73FB7B032B00F011814FF07B0027
:1062E00000F05CFDFB7B002B05D147F21433C0F6B8
:1062F00000037B610DE0FB7B012B05D147F22033CE
:10630000C0F600037B6104E047F22C33C0F60003C3
:106310007B614FF000033B614FF000033B611FE0E6
:1063200000F094FD01464AF6AB23CAF6AA23A3FB6C
:1063300001234FEA530213464FEA43039B18CA1A3C
:106340004FEA82037A69D318196840F23803C2F21F
:1063500000033A6943F822103B6903F101033B61F2
:106360003B69022BDCDDFB7B002B19D040F23013A4
:10637000C2F200031B68D3F8DC301C4647F24033FE
:10638000C0F600034FF0000200924FF001020192AC
:106390004FF000004FF000011A464FF0FF33A047C6
:1063A00040F20003C2F200034FF000021A70A6E0B0
:1063B0004FF0000000F096FF0346002B0FD14FF086
:1063C00000004FF0C80100F00DFF40F24403C2F29C
:1063D00000031B6803F10103184600F0A7FD4FF00E
:1063E000000000F023FF0346002B02D14FF0010311
:1063F000A6E040F24403C2F200031A6840F23803F8
:10640000C2F2000353F8223007F104021046984705
:106410003B79012B1CD1BA6840F24803C2F2000359
:106420001B68D21840F24803C2F200031A6040F21F
:106430004403C2F200031B6803F1010240F244036B
:10644000C2F200031A604FF0000000F039FF1EE0B6
:106450003B79022B1BD140F20403C2F200031B68FC
:1064600003F1FF3240F20403C2F200031A6040F26B
:106470004403C2F200031B6803F1010240F244032B
:10648000C2F200031A604FF0000000F019FF40F262
:106490000403C2F200031B68002B06D040F2440341
:1064A000C2F200031B68032B29D140F24803C2F259
:1064B00000031A6840F20403C2F200031B6810468E
:1064C000194600F0DBFD40F20003C2F200034FF07A
:1064D00001021A7040F20403C2F200034FF00302FB
:1064E0001A6040F24803C2F200034FF000021A6043
:1064F00040F24403C2F200034FF000021A6040F27F
:106500003013C2F200031B68D3F8003298470346E9
:10651000DBB25BB2012B11D140F23013C2F20003A7
:106520001B68D3F80C32984740F23013C2F20003D4
:106530001B68D3F8A8329847034601E04FF00103E7
:10654000184607F11C07BD4690BD00BF90B583B04B
:1065500000AF40F23013C2F200031B68D3F89C3046
:106560001C4647F25033C0F600034FF005004FF0D1
:106570003C011A464FF01103A04740F23013C2F21B
:1065800000031B68D3F89C301C4640F23013C2F263
:1065900000031B68D3F8D032984703464FF05000F1
:1065A0004FF03C011A464FF00603A04740F230136B
:1065B000C2F200031B68D3F89C301C4647F2383304
:1065C000C0F600034FF005004FF022011A464FF0CD
:1065D0000603A04740F23013C2F200031B68D3F851
:1065E0009C301C4647F25C33C0F600034FF032008B
:1065F0004FF022011A464FF00C03A04740F230132F
:10660000C2F200031B68D3F8043307F1070007F157
:10661000060107F1050298477B7903F10403DBB219
:106620007B717A7948F68903C8F68803A3FB0213C5
:106630004FEA53110B464FEA03135B1A4FEA8303E9
:10664000D31ADBB27B7140F23013C2F200031B6835
:10665000D3F8043307F1070007F1060107F104023C
:1066600098473A797B799A42EDD140F23013C2F2E1
:1066700000031B68D3F8843098474FF00203184694
:1066800007F10C07BD4690BDB0B584B002AF04461B
:1066900040F22C03C2F200034FF000021A7040F2E5
:1066A0002C03C2F200034FF000025A6040F2301394
:1066B000C2F200031B68D3F88430984740F23013CD
:1066C000C2F200031B68D3F8DC301D4647F2683382
:1066D000C0F600034FF0000200924FF00102019259
:1066E0004FF000004FF019011A464FF0FF33A84752
:1066F00040F23013C2F200031B68D3F8CC321D46BF
:106700003A4640F23403C2F200031B6810461946B1
:106710004FF008024FF00103A84740F23013C2F2D5
:1067200000031B68D3F8DC301D463B464FF00002E7
:1067300000924FF0010201924FF000004FF00A0169
:106740001A464FF0FF33A84740F23403C2F2000369
:106750001B6803F1010240F23403C2F200031A6025
:1067600040F23013C2F200031B68D3F88C31984713
:106770000346DBB2002B06D040F22C03C2F200032A
:106780004FF001021A7040F22C03C2F200032246BD
:1067900093E8030082E80300204607F10807BD469E
:1067A000B0BD00BFB0B584B002AF044640F22003D4
:1067B000C2F200034FF000021A7040F22003C2F24E
:1067C00000034FF000025A6040F23013C2F200039F
:1067D0001B68D3F88430984740F23013C2F20003AC
:1067E0001B68D3F8DC301D4647F27033C0F6000357
:1067F0004FF0000200924FF0010201924FF00000B2
:106800004FF019011A464FF0FF33A84740F23013FA
:10681000C2F200031B68D3F8CC321D463A4640F260
:106820002803C2F200031B68104619464FF0080205
:106830004FF00103A84740F23013C2F200031B6877
:10684000D3F8DC301D463B464FF0000200924FF07B
:10685000010201924FF000004FF00A011A464FF07A
:10686000FF33A84740F22803C2F200031B6803F17C
:10687000010240F22803C2F200031A6040F2301312
:10688000C2F200031B68D3F88C3198470346DBB291
:10689000002B06D040F22003C2F200034FF00102A9
:1068A0001A7040F22003C2F20003224693E803006C
:1068B00082E80300204607F10807BD46B0BD00BFCF
:1068C000B0B584B002AF044640F21403C2F2000334
:1068D0004FF000021A7040F21403C2F200034FF0AE
:1068E00000025A6040F23013C2F200031B68D3F872
:1068F0008430984740F23013C2F200031B68D3F88B
:10690000DC301D4647F27833C0F600034FF000023A
:1069100000924FF0010201924FF000004FF0190178
:106920001A464FF0FF33A84740F23013C2F200037B
:106930001B68D3F8CC321D463A4640F21C03C2F223
:1069400000031B68104619464FF008024FF0010380
:10695000A84740F23013C2F200031B68D3F8DC30C2
:106960001D463B464FF0000200924FF0010201929B
:106970004FF000004FF00A011A464FF0FF33A847CE
:1069800040F21C03C2F200031B6803F1010240F253
:106990001C03C2F200031A6040F23013C2F200037B
:1069A0001B68D3F88C3198470346DBB2002B06D026
:1069B00040F21403C2F200034FF001021A7040F2D9
:1069C0001403C2F20003224693E8030082E80300A6
:1069D000204607F10807BD46B0BD00BF80B500AF37
:1069E00040F23013C2F200031B68D3F8A8304FF016
:1069F0000100984740F23013C2F200031B68D3F83D
:106A0000B0304FF4F850984740F23013C2F2000310
:106A10001B68D3F8B8304FF6FF70984780BD00BFB1
:106A200080B500AFFFF7DAFF00F004F800F024F8BB
:106A300080BD00BF90B583B002AF40F23013C2F208
:106A400000031B68D3F8DC301C4647F28033C0F6E5
:106A500000034FF0010200924FF0010201924FF04B
:106A600000004FF064011A464FF0FF33A04707F1D2
:106A70000407BD4690BD00BF90B583B002AF00F0E3
:106A800061F840F23013C2F200031B68D3F8DC3027
:106A90001C4647F28C33C0F600034FF00002009210
:106AA0004FF0010201924FF000004FF040011A46F2
:106AB0004FF0FF33A04740F23013C2F200031B68CF
:106AC000D3F81C311C464FF4F85300934FF01000DC
:106AD0004FF03C014FF05D024FF01403A04740F22D
:106AE0003013C2F200031B68D3F8DC301C4647F2B7
:106AF0009C33C0F600034FF0000200924FF00102F9
:106B000001924FF000004FF022011A464FF0FF3380
:106B1000A04740F23013C2F200031B68D3F81C31C7
:106B20001C464FF4F85300934FF010004FF01E0135
:106B30004FF05D024FF01403A04707F10407BD4674
:106B400090BD00BF90B583B002AF40F23013C2F2E7
:106B500000031B68D3F818311C464FF6FF730093EF
:106B60004FF010004FF03C014FF05D024FF0140366
:106B7000A04740F23013C2F200031B68D3F818316B
:106B80001C464FF6FF7300934FF010004FF01E01AC
:106B90004FF05D024FF01403A04707F10407BD4614
:106BA00090BD00BF90B583B002AFFFF7CBFF40F2BE
:106BB0003013C2F200031B68D3F8DC301C4647F2E6
:106BC000A833C0F600034FF0000200924FF001021C
:106BD00001924FF000004FF040011A464FF0FF3392
:106BE000A04740F23013C2F200031B68D3F81C31F7
:106BF0001C464FF4F85300934FF010004FF03C0147
:106C00004FF05D024FF01403A04740F23013C2F280
:106C100000031B68D3F8DC301C4647F2B033C0F6E3
:106C200000034FF0000200924FF0010201924FF07A
:106C300000004FF022011A464FF0FF33A04740F208
:106C40003013C2F200031B68D3F81C311C464FF40A
:106C5000F85300934FF010004FF01E014FF05D020B
:106C60004FF01403A04707F10407BD4690BD00BFD5
:106C700080B582B000AF40F25003C2F200031B782F
:106C8000002B08D1FFF7CCFE40F25003C2F2000304
:106C90004FF001021A7040F23013C2F200031B6879
:106CA000D3F88C3198470346DBB2002B57D040F223
:106CB0003013C2F200031B68D3F8843198470346AF
:106CC000FB80FB887B71FB884FEA13239BB23B71EF
:106CD0007B790F2B1CD97B796D2B19D83B793B2BFA
:106CE00016D93B79502B13D840F25003C2F200035F
:106CF0004FF000021A7040F20803C2F200031B7842
:106D0000002B02D04FF000032BE04FF0010328E0EE
:106D10007B790F2B23D97B796D2B20D83B791D2BC9
:106D20001DD93B79322B1AD840F20803C2F2000376
:106D30001B78002B09D040F20803C2F200034FF089
:106D400000021A7000F018F809E040F25003C2F295
:106D500000034FF000021A704FF0020301E04FF001
:106D60000303184607F10807BD4680BD80B400AF95
:106D7000BD4680BC704700BF80B500AFFFF712FF73
:106D800080BD00BF80B400AFBD4680BC704700BF6F
:106D900080B400AFBD4680BC704700BF80B485B0F2
:106DA00000AF786040F25403C2F200037A681A60C0
:106DB0007A6847F6B913C9F63763D3181A4640F212
:106DC0005403C2F200035A607A684FF27233C3F67A
:106DD0006E43D3181A4640F25403C2F200039A607D
:106DE0004FF00303FB6028E0FB68A3F1030240F2CD
:106DF0005403C2F2000353F82220FB68A3F10201FE
:106E000040F25403C2F2000353F8213082EA030334
:106E10001A46FB685A4047F6B913C9F6376382EA47
:106E20000303194640F25403C2F20003FA6843F820
:106E30002210FB6803F10103FB60FB681F2BD3DD0D
:106E400007F11407BD4680BC704700BF80B485B011
:106E500000AF44F65E13BB606FF001037B6040F24D
:106E60001003C2F200031B6803F101034FEA03524F
:106E70004FEA125240F21003C2F200031A6040F2CD
:106E80001003C2F200031A6840F25403C2F2000376
:106E900053F82230BA6802FB03F240F20C03C2F24C
:106EA00000031B68D3183B603B684FEA234240F263
:106EB0000C03C2F200031A6040F20C03C2F200039A
:106EC0001B683A68D318FB6040F20C03C2F200035F
:106ED0001B68FA689A420FDAFB6803F10103FB6052
:106EE00040F20C03C2F200031B6803F1010240F2FE
:106EF0000C03C2F200031A6040F21003C2F2000356
:106F00001A687968FB68C91A40F25403C2F2000398
:106F100043F8221040F25403C2F2000353F8223027
:106F2000184607F11407BD4680BC704790B589B07C
:106F300002AF786040F23013C2F200031B68D3F84E
:106F4000C8321C4607F11403184679684FF0020254
:106F50004FF00003A04747F2B832C0F6000207F135
:106F6000080392E80300186003F10403198003F199
:106F700002034FEA11421A704FF00003FB734FF007
:106F800000033B743B7DBB737B7DFB7340F230138E
:106F9000C2F200031B68D3F88430984740F23013E4
:106FA000C2F200031B68D3F8DC301C4607F108036B
:106FB0004FF0010200924FF0010201924FF00000E9
:106FC0004FF03C011A464FF0FF33A04707F11C0772
:106FD000BD4690BD90B583B002AF40F23013C2F20F
:106FE00000031B68D3F88430984740F23013C2F294
:106FF00000031B68D3F8DC301C4647F2C433C0F6EC
:1070000000034FF0010200924FF0010201924FF095
:1070100000004FF03C011A464FF0FF33A04707F144
:107020000407BD4690BD00BF90B583B002AF40F2EB
:107030003013C2F200031B68D3F88430984740F243
:107040003013C2F200031B68D3F8DC301C4647F251
:10705000D433C0F600034FF0010200924FF001025A
:1070600001924FF000004FF03C011A464FF0FF3301
:10707000A04707F10407BD4690BD00BF90B591B091
:1070800002AF7860396040F23013C2F200031B682F
:10709000D3F8CC321C4607F12C027B681046194607
:1070A0004FF008024FF00103A04740F23013C2F244
:1070B00000031B68D3F8CC321C4607F128023B685A
:1070C000104619464FF001024FF00003A04747F267
:1070D000F033C0F6000307F1180293E8030082E8DA
:1070E00003004FF000033B624FF000037B6247F266
:1070F0000043C0F6000307F108040FCB07C4237058
:107100004FF007037B6310E07B6BA3F1070307F1EC
:107110003802D31813F80C2C07F118017B6BCB182D
:107120001A707B6B03F101037B637B6B0E2BEBDD32
:1071300097F82830FB7440F23013C2F200031B684A
:10714000D3F88430984740F23013C2F200031B6832
:10715000D3F8DC301C4647F2E433C0F600034FF0AE
:10716000010200924FF0010201924FF000004FF037
:107170004B011A464FF0FF33A04740F23013C2F2E2
:1071800000031B68D3F8DC301C4607F118034FF0EE
:10719000010200924FF0010201924FF000004FF007
:1071A0003C011A464FF0FF33A04740F23013C2F2C1
:1071B00000031B68D3F8DC301C4607F108034FF0CE
:1071C000010200924FF0010201924FF000004FF0D7
:1071D0002D011A464FF0FF33A04707F13C07BD468B
:1071E00090BD00BF80B483B000AF7860396040F2DA
:1071F000D403C2F200037A684FF0000143F8221072
:1072000040F2FC03C2F200037A689B184FF00102BF
:107210001A7040F20813C2F200037A68396843F822
:10722000221007F10C07BD4680BC704780B483B0C4
:1072300000AF786040F2D403C2F200037A6853F8DA
:10724000222040F20813C2F20003796853F821307B
:107250009A4234BF00230123DBB2184607F10C0722
:10726000BD4680BC704700BF80B483B000AF4FF014
:1072700000037B601CE040F2FC03C2F200037A686A
:107280009B181B78002B0FD040F2D403C2F20003EE
:107290007A6853F8223003F1010140F2D403C2F2BC
:1072A00000037A6843F822107B6803F101037B60D6
:1072B0007B68092BDFDD07F10C07BD4680BC7047FA
:1072C00080B483B000AF786040F2FC03C2F20003E8
:1072D0007A689B184FF000021A7007F10C07BD4640
:1072E00080BC704780B483B000AF786040F2FC038C
:1072F000C2F200037A689B181B78184607F10C0746
:10730000BD4680BC704700BF5072692E5761722E17
:107310000000000089660008A5670008C168000831
:1073200089660008A5670008C1680008896600082A
:10733000A5670008C16800085620342E3000000000
:107340004D756C7469706C61796168210000000092
:10735000436972636C654F530000000020726571D1
:107360007569726564000000546573742031000013
:107370005465737420320000546573742033000028
:107380005072696D657257617265210053696E674D
:107390006C6520506C6179657200000054776F2035
:1073A000506C617965727300436F2D6F700000003F
:1073B0005665727375730000537461676520000031
:1073C00000000000537461676520436C656172655D
:1073D000642100005374616765204661696C6564CF
:1073E00020443A00526F756E64204F76657200003B
:1073F00053636F72653A2000000000000000000037
:107400004C69766573206C6566743A200000000054
:10741000010000000300000001000000FFFF000069
:04742000FF0F00005A
:04000005080060107F
:00000001FF
