:020000040800F2
:10600000DC740008ED610008B562000803000000C0
:1060100080EA010212F0030F3AD110F0030220F0DF
:10602000030021F0030150F804CB08BF51F8043BF2
:106030000DD082F003024FEAC2026FF07F4323FAD1
:1060400002F251F8043B4CEA020C43EA020300BF9F
:10605000ACF101329C4501BF22EA0C0212F0803FF4
:1060600050F804CB51F8043BF2D04FEA0C604FEAF1
:106070001C2C012828BFB0EB036F08BF1B0AF4D00B
:1060800003F0FF034FEA1060A0EB0300704700BF6E
:1060900010F0030F0AD010F8012B11F8013B012A70
:1060A00028BF9A42F4D0A2EB030070474DF8045D7C
:1060B0004DF8044D4FF0010242EA022242EA024248
:1060C00001F0030C21F0030150F8044B51F8045B7C
:1060D000BCF1020F26D04BD824F07F4CBCEB152F1F
:1060E000A4EB020323EA04030DD113EAC21308BF91
:1060F00051F8045B0AD18CEA040CBCEB056F0CD19F
:1061000050F8044BE8E74FEA15255CE033F07F4395
:1061100052D10D784FEA146C55E04FEA146C05F03B
:10612000FF0550E04FEA044CA4EB02034FEA1C4C7D
:1061300023EA0403BCEB154F17D113EAC21308BFBF
:1061400051F8045B07D18CEA040CBCEB054F08D175
:1061500050F8044BE6E71B042ED10D884FEA144C8F
:1061600031E04FEA05454FEA144C4FEA15452AE065
:1061700004F0FF0CBCEB156FA4EB020323EA04034D
:106180000DD113EAC21308BF51F8045B0AD18CEA9F
:10619000040CBCEB052F0AD150F8044BE8E74FEA9A
:1061A000156510E014F0FF0F06D051F8045B4FEABC
:1061B000142C25F07F4506E04FF000005DF8044BFD
:1061C0005DF8045B70470CF0FF0205F0FF0001284A
:1061D00028BF904204BF4FEA1C2C2D0AF3D0A2EB3B
:1061E00000005DF8044B5DF8045B704710B50021BA
:1061F00003E00C4BCB580B5004310B480B4B0A18E7
:106200009A42F6D30A4A02E0002342F8043B094BC3
:106210009A42F9D34FF480731A68074B1A6000F062
:106220000DF810BDC07500080000002034000020EB
:1062300034000020600100205C01002080B500AF28
:1062400040F25C13C2F200031B68D3F8D0329847C7
:106250000346184647F2E841C0F60001FFF7D8FEB2
:106260000346002B03DA00F0FFF903461FE040F27B
:106270005C13C2F200031B68D3F830314FF000000A
:10628000984740F25C13C2F200031B68D3F8C03297
:106290004FF00500984740F25C13C2F200031B6800
:1062A000D3F8B8324FF00A0098474FF0040318466D
:1062B00080BD00BF90B58DB002AF4FF0C803FB6149
:1062C00000F0B6FE40F23403C2F200031B78002B4C
:1062D00071D100F0B1FB0346FB76FB7E032B00F08F
:1062E0009C814FF07B0000F03DFCFB7E002B05D134
:1062F00040F20003C2F200037B620DE0FB7E012B43
:1063000005D140F20C03C2F200037B6204E040F2CC
:106310001803C2F200037B624FF000033B624FF0B0
:1063200000033B621FE000F075FC01464AF6AB2318
:10633000CAF6AA23A3FB01234FEA530213464FEAEE
:1063400043039B18CA1A4FEA82037A6AD318196862
:1063500040F23803C2F200033A6A43F822103B6A63
:1063600003F101033B623B6A022BDCDDFB7E002B69
:1063700019D040F25C13C2F200031B68D3F8DC3082
:106380001C4647F2F043C0F600034FF000020092B3
:106390004FF0010201924FF000004FF000011A4649
:1063A0004FF0FF33A04740F23403C2F200034FF036
:1063B00001021A7031E140F23403C2F200031B788B
:1063C000012B29D14FF0000000F070FE0346002B96
:1063D0000ED14FF00000F96900F0E8FD40F24403EF
:1063E000C2F200031B6803F10103184600F082FCAF
:1063F0004FF0000000F0FEFD0346002B00F00D8181
:106400004FF0000000F040FE40F23403C2F20003FF
:106410004FF002021A7000E140F23403C2F20003AE
:106420001B78022B5FD140F24403C2F200031A68CA
:1064300040F23803C2F2000353F8223007F10C0295
:10644000104698473B7B002B00F0E78040F2440366
:10645000C2F200031B6803F1010240F24403C2F2DE
:1064600000031A603B7B012B13D13A6940F24803C9
:10647000C2F200031B68D21840F24803C2F20003C4
:106480001A6040F23403C2F200034FF003021A70A4
:1064900012E040F22403C2F200031B6803F1FF3252
:1064A00040F22403C2F200031A6040F23403C2F245
:1064B00000034FF004021A7040F22403C2F20003FA
:1064C0001B68002B07D040F24403C2F200031B6894
:1064D000032B40F0A28040F23403C2F200034FF0DD
:1064E00005021A7099E040F23403C2F200031B78EF
:1064F000032B20D14FF0000000F0D8FD0346002B05
:1065000006D14FF00000F96900F050FD00F046FCA4
:106510004FF0000000F06EFD0346002B7DD04FF0E1
:10652000000000F0B1FD40F23403C2F200034FF06E
:1065300001021A7071E040F23403C2F200031B78CA
:10654000042B20D14FF0000000F0B0FD0346002BDB
:1065500006D14FF00000F96900F028FD00F048FC7A
:106560004FF0000000F046FD0346002B55D04FF0E1
:10657000000000F089FD40F23403C2F200034FF046
:1065800001021A7049E040F23403C2F200031B78A2
:10659000052B42D140F24C03C2F200031B78002BC2
:1065A00014D140F24803C2F200031A6840F22403F7
:1065B000C2F200031B681046194600F043FC40F28B
:1065C0004C03C2F200034FF001021A7000F02AFFE0
:1065D0003880C0F30F437B803B687B613B7D022B9F
:1065E0001BD140F23403C2F200034FF000021A70D4
:1065F00040F22403C2F200034FF003021A6040F29B
:106600004803C2F200034FF000021A6040F2440354
:10661000C2F200034FF000021A6040F25C13C2F2B3
:1066200000031B68D3F8003298470346DBB25BB225
:10663000012B11D140F25C13C2F200031B68D3F8A6
:106640000C32984740F25C13C2F200031B68D3F887
:10665000A8329847034601E04FF00103184607F1BE
:106660002C07BD4690BD00BF90B583B000AF40F28F
:106670005C13C2F200031B68D3F89C301C4647F23F
:106680000053C0F600034FF005004FF03C011A46DE
:106690004FF01103A04740F25C13C2F200031B68E5
:1066A000D3F89C301C4640F25C13C2F200031B6816
:1066B000D3F8D032984703464FF050004FF03C01DA
:1066C0001A464FF00603A04740F25C13C2F20003E3
:1066D0001B68D3F89C301C4647F2E843C0F6000321
:1066E0004FF005004FF022011A464FF00603A04775
:1066F00040F25C13C2F200031B68D3F89C301C46C6
:1067000047F20C53C0F600034FF032004FF0220165
:106710001A464FF00C03A04740F25C13C2F200038C
:106720001B68D3F8043307F1070007F1060107F1EE
:10673000050298477B7903F10403DBB27B717A7918
:1067400048F68903C8F68803A3FB02134FEA5311E6
:106750000B464FEA03135B1A4FEA8303D31ADBB2EB
:106760007B7140F25C13C2F200031B68D3F8043360
:1067700007F1070007F1060107F1040298473A798B
:106780007B799A42EDD140F25C13C2F200031B68A0
:10679000D3F8843098474FF00203184607F10C07EE
:1067A000BD4690BD80B500AF40F25C13C2F200035D
:1067B0001B68D3F8A8304FF00100984740F25C13F3
:1067C000C2F200031B68D3F8B0304FF4F85098477A
:1067D00040F25C13C2F200031B68D3F8B8304FF6E6
:1067E000FF70984780BD00BF80B500AFFFF7DAFFAC
:1067F00000F004F800F024F880BD00BF90B583B02D
:1068000002AF40F25C13C2F200031B68D3F8DC3025
:106810001C4647F21853C0F600034FF001020092E5
:106820004FF0010201924FF000004FF064011A4650
:106830004FF0FF33A04707F10407BD4690BD00BFEE
:1068400090B583B002AF00F061F840F25C13C2F281
:1068500000031B68D3F8DC301C4647F22453C0F613
:1068600000034FF0000200924FF0010201924FF03E
:1068700000004FF040011A464FF0FF33A04740F2AE
:106880005C13C2F200031B68D3F81C311C464FF4A2
:10689000F85300934FF010004FF03C014FF05D02B1
:1068A0004FF01403A04740F25C13C2F200031B68D0
:1068B000D3F8DC301C4647F23453C0F600034FF0E7
:1068C000000200924FF0010201924FF000004FF0E1
:1068D00022011A464FF0FF33A04740F25C13C2F288
:1068E00000031B68D3F81C311C464FF4F853009387
:1068F0004FF010004FF01E014FF05D024FF01403F7
:10690000A04707F10407BD4690BD00BF90B583B016
:1069100002AF40F25C13C2F200031B68D3F81831D7
:106920001C464FF6FF7300934FF010004FF03C01F0
:106930004FF05D024FF01403A04740F25C13C2F227
:1069400000031B68D3F818311C464FF6FF73009301
:106950004FF010004FF01E014FF05D024FF0140396
:10696000A04707F10407BD4690BD00BF90B583B0B6
:1069700002AFFFF7CBFF40F25C13C2F200031B68CB
:10698000D3F8DC301C4647F24053C0F600034FF00A
:10699000000200924FF0010201924FF000004FF010
:1069A00040011A464FF0FF33A04740F25C13C2F299
:1069B00000031B68D3F81C311C464FF4F8530093B6
:1069C0004FF010004FF03C014FF05D024FF0140308
:1069D000A04740F25C13C2F200031B68D3F8DC301E
:1069E0001C4647F24853C0F600034FF000020092E5
:1069F0004FF0010201924FF000004FF022011A46C1
:106A00004FF0FF33A04740F25C13C2F200031B6853
:106A1000D3F81C311C464FF4F85300934FF010008C
:106A20004FF01E014FF05D024FF01403A04707F135
:106A30000407BD4690BD00BF80B582B000AF40F2F4
:106A40005403C2F200031B78002B08D1FFF7CCFEE1
:106A500040F25403C2F200034FF001021A7040F2F8
:106A60005C13C2F200031B68D3F88C3198470346CD
:106A7000DBB2012B57D140F25C13C2F200031B685A
:106A8000D3F8843198470346FB80FB887B71FB88F1
:106A90004FEA13239BB23B717B790F2B1CD97B7977
:106AA0006D2B19D83B793B2B16D93B79502B13D83A
:106AB00040F25403C2F200034FF000021A7040F299
:106AC0002803C2F200031B78002B02D04FF0000312
:106AD0002BE04FF0010328E07B790F2B23D97B7942
:106AE0006D2B20D83B791D2B1DD93B79322B1AD821
:106AF00040F22803C2F200031B78002B09D040F2B9
:106B00002803C2F200034FF000021A7000F018F8D8
:106B100009E040F25403C2F200034FF000021A7081
:106B20004FF0020301E04FF00303184607F1080796
:106B3000BD4680BD80B400AFBD4680BC704700BF7D
:106B400080B500AFFFF712FF80BD00BF80B400AF7B
:106B5000BD4680BC704700BF80B400AFBD4680BC5E
:106B6000704700BF80B485B000AF786040F2580332
:106B7000C2F200037A681A607A6847F6B913C9F658
:106B80003763D3181A4640F25803C2F200035A6022
:106B90007A684FF27233C3F66E43D3181A4640F246
:106BA0005803C2F200039A604FF00303FB6028E031
:106BB000FB68A3F1030240F25803C2F2000353F84A
:106BC0002220FB68A3F1020140F25803C2F2000345
:106BD00053F8213082EA03031A46FB685A4047F60D
:106BE000B913C9F6376382EA0303194640F2580322
:106BF000C2F20003FA6843F82210FB6803F10103B4
:106C0000FB60FB681F2BD3DD07F11407BD4680BC7A
:106C1000704700BF80B485B000AF44F65E13BB6020
:106C20006FF001037B6040F23003C2F200031B6887
:106C300003F101034FEA03524FEA125240F23003CC
:106C4000C2F200031A6040F23003C2F200031A6875
:106C500040F25803C2F2000353F82230BA6802FB34
:106C600003F240F22C03C2F200031B68D3183B600E
:106C70003B684FEA234240F22C03C2F200031A6041
:106C800040F22C03C2F200031B683A68D318FB6081
:106C900040F22C03C2F200031B68FA689A420FDA32
:106CA000FB6803F10103FB6040F22C03C2F2000316
:106CB0001B6803F1010240F22C03C2F200031A60C8
:106CC00040F23003C2F200031A687968FB68C91AFF
:106CD00040F25803C2F2000343F8221040F2580376
:106CE000C2F2000353F82230184607F11407BD46DC
:106CF00080BC704790B589B002AF786040F25C13F9
:106D0000C2F200031B68D3F8C8321C4607F1140313
:106D1000184679684FF002024FF00003A04747F28F
:106D20005052C0F6000207F1080392E80300186011
:106D300003F10403198003F102034FEA11421A70B0
:106D40004FF00003FB734FF000033B743B7DBB73BC
:106D50007B7DFB7340F25C13C2F200031B68D3F827
:106D60008430984740F25C13C2F200031B68D3F8EA
:106D7000DC301C4607F108034FF0010200924FF08F
:106D8000010201924FF000004FF03C011A464FF013
:106D9000FF33A04707F11C07BD4690BD90B583B0F7
:106DA00002AF40F25C13C2F200031B68D3F88430D8
:106DB000984740F25C13C2F200031B68D3F8DC3042
:106DC0001C4647F25C53C0F600034FF001020092EC
:106DD0004FF0010201924FF000004FF03C011A46C3
:106DE0004FF0FF33A04707F10407BD4690BD00BF39
:106DF00090B583B002AF40F25C13C2F200031B688F
:106E0000D3F88430984740F25C13C2F200031B6849
:106E1000D3F8DC301C4647F26C53C0F600034FF049
:106E2000010200924FF0010201924FF000004FF07A
:106E30003C011A464FF0FF33A04707F10407BD4657
:106E400090BD00BF90B593B002AF7860396040F25A
:106E50005C13C2F200031B68D3F8CC321C4607F166
:106E600030027B68104619464FF008024FF00103CC
:106E7000A04740F25C13C2F200031B68D3F8CC3287
:106E80001C4607F12C023B68104619464FF00102E0
:106E90004FF00003A04747F28853C0F6000307F104
:106EA0001C0293E8030082E803004FF000037B62BA
:106EB0004FF00003BB6247F29853C0F6000307F19E
:106EC0000C040FCB07C423704FF00703FB6310E0E3
:106ED000FB6BA3F1070307F14002D31813F8102C42
:106EE00007F11C01FB6BCB181A70FB6B03F101035C
:106EF000FB63FB6B0E2BEBDD97F82C30FB7540F240
:106F00005C13C2F200031B68D3F88430984740F248
:106F10005C13C2F200031B68D3F8DC301C4647F256
:106F20007C53C0F600034FF0010200924FF00102C3
:106F300001924FF000004FF04B011A464FF0FF3323
:106F4000A04740F25C13C2F200031B68D3F8DC30A8
:106F50001C4607F11C034FF0010200924FF00102A2
:106F600001924FF000004FF03C011A464FF0FF3302
:106F7000A04740F25C13C2F200031B68D3F8DC3078
:106F80001C4607F10C034FF0010200924FF0010282
:106F900001924FF000004FF02D011A464FF0FF33E1
:106FA000A04707F14407BD4690BD00BF80B483B041
:106FB00000AF7860396040F2D803C2F200037A680B
:106FC0004FF0000143F8221040F20013C2F2000318
:106FD0007A689B184FF001021A7040F20C13C2F24B
:106FE00000037A68396843F8221007F10C07BD46A0
:106FF00080BC704780B483B000AF786040F2D803A3
:10700000C2F200037A6853F8222040F20C13C2F255
:107010000003796853F821309A4234BF00230123DA
:10702000DBB2184607F10C07BD4680BC704700BFB5
:1070300080B483B000AF4FF000037B601CE040F2EF
:107040000013C2F200037A689B181B78002B0FD044
:1070500040F2D803C2F200037A6853F8223003F1F9
:10706000010140F2D803C2F200037A6843F822100B
:107070007B6803F101037B607B68092BDFDD07F18F
:107080000C07BD4680BC704780B483B000AF786009
:1070900040F20013C2F200037A689B184FF000021E
:1070A0001A7007F10C07BD4680BC704780B483B0EE
:1070B00000AF786040F20013C2F200037A689B18B8
:1070C0001B78184607F10C07BD4680BC704700BF0F
:1070D000B0B588B002AF044640F24C13C2F20003D0
:1070E0004FF000021A7040F24C13C2F200034FF04E
:1070F00000025A6040F25C13C2F200031B68D3F82E
:107100008430984740F25C13C2F200031B68D3F846
:10711000DC301D4647F2A853C0F600034FF00002D2
:1071200000924FF0010201924FF000004FF0190160
:107130001A464FF0FF33A84740F25C13C2F2000337
:107140001B68D3F8CC321D4607F10C0240F25413F1
:10715000C2F200031B68104619464FF008024FF0B8
:107160000103A84740F25C13C2F200031B68D3F886
:10717000DC301D4607F10C034FF0000200924FF087
:10718000010201924FF000004FF00A011A464FF041
:10719000FF33A84740F25413C2F200031B6803F107
:1071A000010240F25413C2F200031A6000F03AF9EF
:1071B0003880C0F30F437B803B687B613B7D022BB3
:1071C00006D140F24C13C2F200034FF001021A70D4
:1071D00040F24C13C2F20003224693E8030082E817
:1071E0000300204607F11807BD46B0BDB0B588B012
:1071F00002AF044640F24013C2F200034FF0000217
:107200001A7040F24013C2F200034FF000025A60BD
:1072100040F25C13C2F200031B68D3F88430984735
:1072200040F25C13C2F200031B68D3F8DC301D4649
:1072300047F2B053C0F600034FF0000200924FF047
:10724000010201924FF000004FF019011A464FF071
:10725000FF33A84740F25C13C2F200031B68D3F867
:10726000CC321D4607F10C0240F24813C2F2000373
:107270001B68104619464FF008024FF00103A8475B
:1072800040F25C13C2F200031B68D3F8DC301D46E9
:1072900007F10C034FF0000200924FF0010201923F
:1072A0004FF000004FF00A011A464FF0FF33A84795
:1072B00040F24813C2F200031B6803F1010240F2DE
:1072C0004813C2F200031A6000F0ACF83880C0F333
:1072D0000F437B803B687B613B7D022B06D140F2F4
:1072E0004013C2F200034FF001021A7040F2401343
:1072F000C2F20003224693E8030082E8030020461E
:1073000007F11807BD46B0BDB0B588B002AF04465E
:1073100040F23413C2F200034FF000021A7040F240
:107320003413C2F200034FF000025A6040F25C13C3
:10733000C2F200031B68D3F88430984740F25C1314
:10734000C2F200031B68D3F8DC301D4647F2B85385
:10735000C0F600034FF0000200924FF001020192CC
:107360004FF000004FF019011A464FF0FF33A847C5
:1073700040F25C13C2F200031B68D3F8CC321D4606
:1073800007F10C0240F23C13C2F200031B681046E6
:1073900019464FF008024FF00103A84740F25C1372
:1073A000C2F200031B68D3F8DC301D4607F10C0362
:1073B0004FF0000200924FF0010201924FF00000E6
:1073C0004FF00A011A464FF0FF33A84740F23C1332
:1073D000C2F200031B6803F1010240F23C13C2F247
:1073E00000031A6000F01EF83880C0F30F437B8062
:1073F0003B687B613B7D022B06D140F23413C2F225
:1074000000034FF001021A7040F23413C2F200037D
:10741000224693E8030082E80300204607F118079C
:10742000BD46B0BD80B584B000AF4FF00003FB8116
:1074300040F25C13C2F200031B68D3F88C3198470A
:107440000346DBB2002B1CD040F25813C2F20003FB
:107450001B78002B0AD040F25813C2F200034FF001
:1074600001021A704FF003033B7126E040F25813FB
:10747000C2F200034FF001021A704FF001033B719A
:107480001BE040F25813C2F200031B78002B0AD015
:1074900040F25813C2F200034FF000021A704FF08E
:1074A00002033B7109E040F25813C2F200034FF0AF
:1074B00000021A704FF000033B71FB89FB807B6870
:1074C000BB604FF000033A8962F30F037A8962F3DD
:1074D0001F43184607F11007BD4680BD5072692E44
:1074E0005761722E000000005620342E300000003C
:1074F0004D756C7469706C617961682100000000E1
:10750000436972636C654F5300000000207265711F
:1075100075697265640000005072696D657257612B
:107520007265210053696E676C6520506C617965E6
:107530007200000054776F20506C6179657273009F
:10754000436F2D6F700000005665727375730000F5
:107550005374616765200000000000005374616788
:107560006520436C65617265642100005374616736
:1075700065204661696C656420443A00526F756EFF
:1075800064204F766572000053636F72653A200085
:1075900000000000000000004C69766573206C65F7
:1075A00066743A20000000005465737420310000B6
:1075B00054657374203200005465737420330000E6
:1075C000D1700008ED71000809730008D17000083F
:1075D000ED71000809730008D1700008ED71000812
:1075E000097300080300000001000000FFFF000015
:0475F000FF0F000089
:04000005080060107F
:00000001FF
