:020000040800F2
:10600000AC6F0008ED610008B562000803000000F5
:1060100080EA010212F0030F3AD110F0030220F0DF
:10602000030021F0030150F804CB08BF51F8043BF2
:106030000DD082F003024FEAC2026FF07F4323FAD1
:1060400002F251F8043B4CEA020C43EA020300BF9F
:10605000ACF101329C4501BF22EA0C0212F0803FF4
:1060600050F804CB51F8043BF2D04FEA0C604FEAF1
:106070001C2C012828BFB0EB036F08BF1B0AF4D00B
:1060800003F0FF034FEA1060A0EB0300704700BF6E
:1060900010F0030F0AD010F8012B11F8013B012A70
:1060A00028BF9A42F4D0A2EB030070474DF8045D7C
:1060B0004DF8044D4FF0010242EA022242EA024248
:1060C00001F0030C21F0030150F8044B51F8045B7C
:1060D000BCF1020F26D04BD824F07F4CBCEB152F1F
:1060E000A4EB020323EA04030DD113EAC21308BF91
:1060F00051F8045B0AD18CEA040CBCEB056F0CD19F
:1061000050F8044BE8E74FEA15255CE033F07F4395
:1061100052D10D784FEA146C55E04FEA146C05F03B
:10612000FF0550E04FEA044CA4EB02034FEA1C4C7D
:1061300023EA0403BCEB154F17D113EAC21308BFBF
:1061400051F8045B07D18CEA040CBCEB054F08D175
:1061500050F8044BE6E71B042ED10D884FEA144C8F
:1061600031E04FEA05454FEA144C4FEA15452AE065
:1061700004F0FF0CBCEB156FA4EB020323EA04034D
:106180000DD113EAC21308BF51F8045B0AD18CEA9F
:10619000040CBCEB052F0AD150F8044BE8E74FEA9A
:1061A000156510E014F0FF0F06D051F8045B4FEABC
:1061B000142C25F07F4506E04FF000005DF8044BFD
:1061C0005DF8045B70470CF0FF0205F0FF0001284A
:1061D00028BF904204BF4FEA1C2C2D0AF3D0A2EB3B
:1061E00000005DF8044B5DF8045B704710B50021BA
:1061F00003E00C4BCB580B5004310B480B4B0A18E7
:106200009A42F6D30A4A02E0002342F8043B094BC3
:106210009A42F9D34FF480731A68074B1A6000F062
:106220000DF810BD58700008000000201400002078
:1062300014000020DC000020D800002080B500AF52
:1062400040F2D803C2F200031B68D3F8D03298475B
:106250000346184646F6C871C0F60001FFF7D8FE9F
:106260000346002B03DA00F05DF903461FE040F21D
:10627000D803C2F200031B68D3F830314FF000009E
:10628000984740F2D803C2F200031B68D3F8C0322B
:106290004FF00500984740F2D803C2F200031B6894
:1062A000D3F8B8324FF00A0098474FF0040318466D
:1062B00080BD00BF90B587B002AF40F20003C2F2CC
:1062C00000031B78002B5DD000F0BEFC0346FB7280
:1062D000FB7A032B00F0FF804FF07B0000F04AFDBB
:1062E0004FF00003FB604FF00003FB601DE000F087
:1062F00099FD024646F6B873C0F600031B68B2FB70
:10630000F3F103FB01F3D21A46F6BC73C0F60003A7
:1063100053F8221040F23803C2F20003FA6843F83F
:106320002210FB6803F10103FB6047F21003C0F683
:1063300000031B68FA689A42D9DBFB7A002B19D05C
:1063400040F2D803C2F200031B68D3F8DC301C46CD
:1063500046F6D073C0F600034FF0000200924FF0F3
:10636000010201924FF000004FF000011A464FF079
:10637000FF33A04740F20003C2F200034FF00002D7
:106380001A70A8E040F24403C2F200031B68002B1D
:1063900009D140F24803C2F200031B6803F1010374
:1063A000184600F0AFFD40F24403C2F200031B6840
:1063B000632B0EDC40F24403C2F200031B6803F1BE
:1063C000010240F24403C2F200031A604FF00103DD
:1063D000A2E040F24803C2F200031A6840F2380318
:1063E000C2F2000353F822303A46104698473B78F1
:1063F000012B1FD17A6840F24C03C2F200031B68E4
:10640000D21840F24C03C2F200031A6040F2480373
:10641000C2F200031B6803F1010240F24803C2F21A
:1064200000031A6040F24403C2F200034FF000027E
:106430001A6021E03B78022B1ED140F20403C2F225
:1064400000031B6803F1FF3240F20403C2F20003B1
:106450001A6040F24803C2F200031B6803F1010214
:1064600040F24803C2F200031A6040F24403C2F251
:1064700000034FF000021A6040F20403C2F200036E
:106480001B68002B0BD040F24803C2F200031A68CD
:1064900047F21003C0F600031B689A421BD140F27A
:1064A0000003C2F200034FF001021A7040F204032D
:1064B000C2F200034FF003021A6040F24C03C2F232
:1064C00000034FF000021A6040F24803C2F20003DA
:1064D0004FF000021A6040F2D803C2F200031B68BA
:1064E000D3F8003298470346DBB25BB2012B11D1DF
:1064F00040F2D803C2F200031B68D3F80C3298476D
:1065000040F2D803C2F200031B68D3F8A8329847C0
:10651000034601E04FF00103184607F11407BD469A
:1065200090BD00BF90B583B000AF40F2D803C2F277
:1065300000031B68D3F89C301C4646F6E073C0F697
:1065400000034FF005004FF03C011A464FF01103D5
:10655000A04740F2D803C2F200031B68D3F89C3076
:106560001C4640F2D803C2F200031B68D3F8D032B5
:10657000984703464FF050004FF03C011A464FF049
:106580000603A04740F2D803C2F200031B68D3F809
:106590009C301C4646F6C873C0F600034FF0050059
:1065A0004FF022011A464FF00603A04740F2D803ED
:1065B000C2F200031B68D3F89C301C4646F6EC730D
:1065C000C0F600034FF032004FF022011A464FF0A0
:1065D0000C03A04740F2D803C2F200031B68D3F8B3
:1065E000043307F1070007F1060107F10502984798
:1065F0007B7903F10403DBB27B717A7948F6890376
:10660000C8F68803A3FB02134FEA53110B464FEA67
:1066100003135B1A4FEA8303D31ADBB27B7140F298
:10662000D803C2F200031B68D3F8043307F1070054
:1066300007F1060107F1040298473A797B799A42FB
:10664000EDD140F2D803C2F200031B68D3F88430C6
:1066500098474FF00203184607F10C07BD4690BD5E
:10666000B0B584B002AF044640F22C03C2F200037E
:106670004FF000021A7040F22C03C2F200034FF0F8
:1066800000025A6040F2D803C2F200031B68D3F83C
:106690008430984740F2D803C2F200031B68D3F855
:1066A000DC301D4646F6F873C0F600034FF00002DA
:1066B00000924FF0010201924FF000004FF01901DB
:1066C0001A464FF0FF33A84740F2D803C2F2000346
:1066D0001B68D3F8CC321D463A4640F23403C2F26E
:1066E00000031B68104619464FF008024FF00103E3
:1066F000A84740F2D803C2F200031B68D3F8DC308D
:106700001D463B464FF0000200924FF001020192FD
:106710004FF000004FF00A011A464FF0FF33A84730
:1067200040F23403C2F200031B6803F1010240F29D
:106730003403C2F200031A6040F2D803C2F200032D
:106740001B68D3F88C3198470346DBB2002B06D088
:1067500040F22C03C2F200034FF001021A7040F223
:106760002C03C2F20003224693E8030082E80300F0
:10677000204607F10807BD46B0BD00BFB0B584B0E4
:1067800002AF044640F22003C2F200034FF00002C1
:106790001A7040F22003C2F200034FF000025A6068
:1067A00040F2D803C2F200031B68D3F88430984744
:1067B00040F2D803C2F200031B68D3F8DC301D4658
:1067C00047F20003C0F600034FF0000200924FF0C2
:1067D000010201924FF000004FF019011A464FF0EC
:1067E000FF33A84740F2D803C2F200031B68D3F876
:1067F000CC321D463A4640F22803C2F200031B6821
:10680000104619464FF008024FF00103A84740F226
:10681000D803C2F200031B68D3F8DC301D463B46A8
:106820004FF0000200924FF0010201924FF0000081
:106830004FF00A011A464FF0FF33A84740F22803F1
:10684000C2F200031B6803F1010240F22803C2F206
:1068500000031A6040F2D803C2F200031B68D3F8A9
:106860008C3198470346DBB2002B06D040F2200360
:10687000C2F200034FF001021A7040F22003C2F28C
:106880000003224693E8030082E80300204607F154
:106890000807BD46B0BD00BFB0B584B002AF044626
:1068A00040F21403C2F200034FF000021A7040F2EB
:1068B0001403C2F200034FF000025A6040F2D80302
:1068C000C2F200031B68D3F88430984740F2D80323
:1068D000C2F200031B68D3F8DC301D4647F2080300
:1068E000C0F600034FF0000200924FF00102019247
:1068F0004FF000004FF019011A464FF0FF33A84740
:1069000040F2D803C2F200031B68D3F8CC321D4614
:106910003A4640F21C03C2F200031B6810461946B7
:106920004FF008024FF00103A84740F2D803C2F22B
:1069300000031B68D3F8DC301D463B464FF00002D5
:1069400000924FF0010201924FF000004FF00A0157
:106950001A464FF0FF33A84740F21C03C2F200036F
:106960001B6803F1010240F21C03C2F200031A602B
:1069700040F2D803C2F200031B68D3F88C31984769
:106980000346DBB2002B06D040F21403C2F2000330
:106990004FF001021A7040F21403C2F200032246C3
:1069A00093E8030082E80300204607F10807BD468C
:1069B000B0BD00BF80B500AF40F2D803C2F2000303
:1069C0001B68D3F8A8304FF00100984740F2D80375
:1069D000C2F200031B68D3F8B0304FF4F850984768
:1069E00040F2D803C2F200031B68D3F8B8304FF668
:1069F000FF70984780BD00BF80B500AFFFF7DAFF9A
:106A000000F004F800F024F880BD00BF90B583B01A
:106A100002AF40F2D803C2F200031B68D3F8DC30A7
:106A20001C4647F21403C0F600034FF00102009227
:106A30004FF0010201924FF000004FF064011A463E
:106A40004FF0FF33A04707F10407BD4690BD00BFDC
:106A500090B583B002AF00F061F840F2D803C2F203
:106A600000031B68D3F8DC301C4647F22003C0F655
:106A700000034FF0000200924FF0010201924FF02C
:106A800000004FF040011A464FF0FF33A04740F29C
:106A9000D803C2F200031B68D3F81C311C464FF424
:106AA000F85300934FF010004FF03C014FF05D029F
:106AB0004FF01403A04740F2D803C2F200031B6852
:106AC000D3F8DC301C4647F23003C0F600034FF029
:106AD000000200924FF0010201924FF000004FF0CF
:106AE00022011A464FF0FF33A04740F2D803C2F20A
:106AF00000031B68D3F81C311C464FF4F853009375
:106B00004FF010004FF01E014FF05D024FF01403E4
:106B1000A04707F10407BD4690BD00BF90B583B004
:106B200002AF40F2D803C2F200031B68D3F8183159
:106B30001C464FF6FF7300934FF010004FF03C01DE
:106B40004FF05D024FF01403A04740F2D803C2F2A9
:106B500000031B68D3F818311C464FF6FF730093EF
:106B60004FF010004FF01E014FF05D024FF0140384
:106B7000A04707F10407BD4690BD00BF90B583B0A4
:106B800002AFFFF7CBFF40F2D803C2F200031B684D
:106B9000D3F8DC301C4647F23C03C0F600034FF04C
:106BA000000200924FF0010201924FF000004FF0FE
:106BB00040011A464FF0FF33A04740F2D803C2F21B
:106BC00000031B68D3F81C311C464FF4F8530093A4
:106BD0004FF010004FF03C014FF05D024FF01403F6
:106BE000A04740F2D803C2F200031B68D3F8DC30A0
:106BF0001C4647F24403C0F600034FF00002009227
:106C00004FF0010201924FF000004FF022011A46AE
:106C10004FF0FF33A04740F2D803C2F200031B68D5
:106C2000D3F81C311C464FF4F85300934FF010007A
:106C30004FF01E014FF05D024FF01403A04707F123
:106C40000407BD4690BD00BF80B582B000AF40F2E2
:106C50005403C2F200031B78002B08D1FFF7CCFECF
:106C600040F25403C2F200034FF001021A7040F2E6
:106C7000D803C2F200031B68D3F88C31984703464F
:106C8000DBB2002B57D040F2D803C2F200031B68DE
:106C9000D3F8843198470346FB80FB887B71FB88DF
:106CA0004FEA13239BB23B717B790F2B1CD97B7965
:106CB0006D2B19D83B793B2B16D93B79502B13D828
:106CC00040F25403C2F200034FF000021A7040F287
:106CD0000803C2F200031B78002B02D04FF0000320
:106CE0002BE04FF0010328E07B790F2B23D97B7930
:106CF0006D2B20D83B791D2B1DD93B79322B1AD80F
:106D000040F20803C2F200031B78002B09D040F2C6
:106D10000803C2F200034FF000021A7000F018F8E6
:106D200009E040F25403C2F200034FF000021A706F
:106D30004FF0020301E04FF00303184607F1080784
:106D4000BD4680BD80B400AFBD4680BC704700BF6B
:106D500080B500AFFFF712FF80BD00BF80B400AF69
:106D6000BD4680BC704700BF80B400AFBD4680BC4C
:106D7000704700BF80B485B000AF786040F2580320
:106D8000C2F200037A681A607A6847F6B913C9F646
:106D90003763D3181A4640F25803C2F200035A6010
:106DA0007A684FF27233C3F66E43D3181A4640F234
:106DB0005803C2F200039A604FF00303FB6028E01F
:106DC000FB68A3F1030240F25803C2F2000353F838
:106DD0002220FB68A3F1020140F25803C2F2000333
:106DE00053F8213082EA03031A46FB685A4047F6FB
:106DF000B913C9F6376382EA0303194640F2580310
:106E0000C2F20003FA6843F82210FB6803F10103A1
:106E1000FB60FB681F2BD3DD07F11407BD4680BC68
:106E2000704700BF80B485B000AF44F65E13BB600E
:106E30006FF001037B6040F21003C2F200031B6895
:106E400003F101034FEA03524FEA125240F21003DA
:106E5000C2F200031A6040F21003C2F200031A6883
:106E600040F25803C2F2000353F82230BA6802FB22
:106E700003F240F20C03C2F200031B68D3183B601C
:106E80003B684FEA234240F20C03C2F200031A604F
:106E900040F20C03C2F200031B683A68D318FB608F
:106EA00040F20C03C2F200031B68FA689A420FDA40
:106EB000FB6803F10103FB6040F20C03C2F2000324
:106EC0001B6803F1010240F20C03C2F200031A60D6
:106ED00040F21003C2F200031A687968FB68C91A0D
:106EE00040F25803C2F2000343F8221040F2580364
:106EF000C2F2000353F82230184607F11407BD46CA
:106F000080BC704790B589B002AF786040F2D8037A
:106F1000C2F200031B68D3F8C8321C4607F1140301
:106F2000184679684FF002024FF00003A04747F27D
:106F30004C02C0F6000207F1080392E80300186053
:106F400003F10403198003F102034FEA11421A709E
:106F50004FF00003FB734FF000033B743B7DBB73AA
:106F60007B7DFB7340F2D803C2F200031B68D3F8A9
:106F70008430984740F2D803C2F200031B68D3F86C
:106F8000DC301C4607F108034FF0010200924FF07D
:106F9000010201924FF000004FF040011A464FF0FD
:106FA0000803A04707F11C07BD4690BD5072692E2B
:106FB0005761722E000000000300000061660008A7
:106FC0007D670008996800085620342E30000000C4
:106FD0004D756C7469706C61796168210000000006
:106FE000436972636C654F53000000002072657145
:106FF0007569726564000000546573742031000087
:10700000546573742032000054657374203300009B
:10701000030000005072696D65725761726521004E
:1070200053696E676C6520506C6179657200000071
:1070300054776F20506C617965727300436F2D6FC8
:1070400070000000566572737573000053746167B9
:087050006520000000000000B3
:10705800010000000300000001000000FFFF000025
:04706800FF0F000016
:04000005080060107F
:00000001FF
