:020000040800F2
:10600000BC640008ED610008A56200080300000000
:1060100080EA010212F0030F3AD110F0030220F0DF
:10602000030021F0030150F804CB08BF51F8043BF2
:106030000DD082F003024FEAC2026FF07F4323FAD1
:1060400002F251F8043B4CEA020C43EA020300BF9F
:10605000ACF101329C4501BF22EA0C0212F0803FF4
:1060600050F804CB51F8043BF2D04FEA0C604FEAF1
:106070001C2C012828BFB0EB036F08BF1B0AF4D00B
:1060800003F0FF034FEA1060A0EB0300704700BF6E
:1060900010F0030F0AD010F8012B11F8013B012A70
:1060A00028BF9A42F4D0A2EB030070474DF8045D7C
:1060B0004DF8044D4FF0010242EA022242EA024248
:1060C00001F0030C21F0030150F8044B51F8045B7C
:1060D000BCF1020F26D04BD824F07F4CBCEB152F1F
:1060E000A4EB020323EA04030DD113EAC21308BF91
:1060F00051F8045B0AD18CEA040CBCEB056F0CD19F
:1061000050F8044BE8E74FEA15255CE033F07F4395
:1061100052D10D784FEA146C55E04FEA146C05F03B
:10612000FF0550E04FEA044CA4EB02034FEA1C4C7D
:1061300023EA0403BCEB154F17D113EAC21308BFBF
:1061400051F8045B07D18CEA040CBCEB054F08D175
:1061500050F8044BE6E71B042ED10D884FEA144C8F
:1061600031E04FEA05454FEA144C4FEA15452AE065
:1061700004F0FF0CBCEB156FA4EB020323EA04034D
:106180000DD113EAC21308BF51F8045B0AD18CEA9F
:10619000040CBCEB052F0AD150F8044BE8E74FEA9A
:1061A000156510E014F0FF0F06D051F8045B4FEABC
:1061B000142C25F07F4506E04FF000005DF8044BFD
:1061C0005DF8045B70470CF0FF0205F0FF0001284A
:1061D00028BF904204BF4FEA1C2C2D0AF3D0A2EB3B
:1061E00000005DF8044B5DF8045B704710B50021BA
:1061F00003E00C4BCB580B5004310B480B4B0A18E7
:106200009A42F6D30A4A02E0002342F8043B094BC3
:106210009A42F9D34FF480731A68074B1A6000F062
:106220000DF810BDF46400080000002000000020FC
:1062300000000020040000200000002080B500AF16
:1062400040F20003C2F200031B68D3F8D032984733
:106250000346184646F2C841C0F60001FFF7D8FED3
:106260000346002B03DA00F043F8034617E040F240
:106270000003C2F200031B68D3F850314FF0000056
:10628000984700F0D3F840F20003C2F200031B6805
:10629000D3F8B8324FF47A7098474FF00403184699
:1062A00080BD00BF80B500AF40F20003C2F2000322
:1062B0001B68D3F8003298470346DBB25BB2012B70
:1062C00011D140F20003C2F200031B68D3F80C3274
:1062D000984740F20003C2F200031B68D3F8A832CB
:1062E0009847034601E04FF00103184680BD00BF08
:1062F00090B583B000AF40F20003C2F200031B6808
:10630000D3F89C301C4646F2D043C0F600034FF051
:1063100005004FF03C011A464FF01103A04740F230
:106320000003C2F200031B68D3F89C301C4640F205
:106330000003C2F200031B68D3F8D032984703462B
:106340004FF050004FF03C011A464FF00603A047B3
:1063500040F20003C2F200031B68D3F89C301C46D5
:1063600046F2C843C0F600034FF005004FF022018B
:106370001A464FF00603A04740F20003C2F20003A2
:106380001B68D3F89C301C4646F2DC43C0F6000381
:106390004FF032004FF022011A464FF00C03A04795
:1063A00040F20003C2F200031B68D3F8043307F184
:1063B000070007F1060107F1050298477B7903F111
:1063C0000403DBB27B717A7948F68903C8F6880347
:1063D000A3FB02134FEA53110B464FEA03135B1A58
:1063E0004FEA8303D31ADBB27B7140F20003C2F29F
:1063F00000031B68D3F8043307F1070007F1060117
:1064000007F1040298473A797B799A42EDD140F23C
:106410000003C2F200031B68D3F8843098474FF0A2
:106420000203184607F10C07BD4690BD80B500AFCA
:1064300046F23D43C0F60003984780BD90B583B057
:1064400002AF40F20003C2F200031B68D3F8A83089
:106450004FF00100984740F20003C2F200031B68AE
:10646000D3F8B0304FF6FF70984740F20003C2F205
:1064700000031B68D3F8B8304FF4F850984740F247
:106480000003C2F200031B68D3F8DC301C4646F25E
:10649000E843C0F600034FF0000200924FF0010203
:1064A00001924FF000004FF064011A464FF0FF33A5
:1064B000A04707F10407BD4690BD00BF4D792041BC
:1064C00070700000000000005620342E30000000E4
:1064D000436972636C654F53000000002072657160
:1064E00075697265640000005072696D657257616C
:0464F00072652100B0
:04000005080060107F
:00000001FF
